:020000040800F2
:10000000C01100204501000821210008232100081B
:10001000272100082B2100082F21000800000000E4
:100020000000000000000000000000003321000874
:1000300035210008000000003721000839210008A0
:100040005F0100085F0100085F0100085F01000810
:100050005F0100085F0100085F01000861210008DE
:100060005F010008D92100085F0100085F01000856
:100070005F0100085F0100085F0100085F010008E0
:100080005F0100085F0100085F0100085F010008D0
:100090005F0100085F0100085F010008AF40000831
:1000A0005F0100088F3100085F0100085F01000850
:1000B000B3310008233200085F0100085F01000827
:1000C0005F0100085F0100085F0100085F01000890
:1000D0005F010008FD210008194500086F22000893
:1000E0005F0100085F0100085F0100085F01000870
:1000F0005F0100085F0100085F0100085F01000860
:100100005F0100085F0100085F0100085F0100084F
:100110005F0100085F0100085F0100085F0100083F
:100120005F0100085F0100085F0100085F0100082F
:10013000DFF80CD005F0FCF900480047831E0008EA
:10014000C01100200648804706480047FEE7FEE74A
:10015000FEE7FEE7FEE7FEE7FEE7FEE7FEE7FEE777
:1001600047020008310100080CB500200190009002
:100170006C48006840F480306A49086000BF6948F4
:10018000006800F4003000900198401C0190009835
:1001900018B90198B0F5A06FF1D16248006800F479
:1001A000003010B10120009001E000200090009884
:1001B000012843D15C48006840F010005A490860AB
:1001C0000846006820F0030008600846006840F018
:1001D0000200086053484068524948600846406839
:1001E00048600846406840F48060486008464068BF
:1001F00020F47C1048600846406840F4E8104860ED
:100200000846006840F08070086000BF45480068FC
:1002100000F000700028F9D04248406820F0030048
:10022000404948600846406840F00200486000BF0E
:100230003C48406800F00C000828F9D10CBD10B50E
:10024000FFF792FF10BD10B53648006840F001007E
:1002500034490860084640683449084031494860DC
:1002600008460068324908402E4908600846006880
:1002700020F4802008600846406820F4FE004860B2
:100280004FF41F008860FFF7DAFF4FF00060294944
:10029000086010BD10B5002100200022214B5B68D2
:1002A00003F00C0121B1042906D0082928D107E068
:1002B000214B224C236027E01F4B204C236023E07E
:1002C000184B5B6803F47010164B5B6803F48032C4
:1002D000022303EB904022B9194B4343174C236090
:1002E0000DE0104B5B6803F4003323B1144B434320
:1002F000124C236003E0104B4343104C236003E097
:100300000D4B0E4C236000BF00BF064B5B68C3F370
:1003100003130C4CE15C094B1B68CB40074C23607A
:1003200010BD000000100240002002400000FFF855
:10033000FFFFF6FE08ED00E000127A00000000204A
:1003400000093D000400002031490143314A116099
:10035000704770B5002100230F22C47804B32D4CE0
:10036000246804F4E064C4F5E064210AC1F10403E4
:10037000CA40447804FA03F1847814402143090107
:10038000254C0678A155047804F01F050124AC40E3
:1003900005786D11AD0005F1E025C5F8004109E0D3
:1003A000047804F01F050124AC401C4D067876113A
:1003B00045F8264070BD1A4A0A400243154B1B1FE0
:1003C0001A60704739B1134A121D12680243114B6B
:1003D0001B1D1A6006E00F4A121D126882430D4B66
:1003E0001B1D1A607047042808D14FF0E0210969ED
:1003F00041F004014FF0E022116107E04FF0E021ED
:10040000096921F004014FF0E022116170470000FA
:100410000000FA050CED00E000E400E080E100E0FF
:1004200080FFFF1F002044490860091D0860091D66
:100430000860091D086041483F4914310860704751
:1004400000213D498279002A3AD00A4612680368A1
:100450009A430B461A600A1D126803689A430B1DE3
:100460001A60027911440A6803681A430A60324A22
:100470000832126803689A432F4B08331A601A1D1A
:10048000126803689A432C4B0C331A604279102A85
:100490000ED11A1F126803681A43274B08331A60DB
:1004A0001A1D126803681A43234B0C331A600DE0BF
:1004B0002149427911440A6803681A430A6005E039
:1004C000027911440A6803689A430A607047002160
:1004D000016001710C214171002181717047164941
:1004E000103109680143144A103211607047014607
:1004F0000020114A143212680A400AB1012000E0BB
:10050000002070470C4914310860704701460020F4
:100510000022094B1B6803EA0102074B14331B68D6
:100520000B4013B10AB1012000E0002070470249DE
:10053000143108607047000000040140FFFF0F0005
:1005400010B50446CC48844208D10121042000F0B3
:100550002DFB0021042000F029FB46E0C74884421F
:1005600008D10121082000F021FB0021082000F023
:100570001DFB3AE0C248844208D10121102000F05E
:1005800015FB0021102000F011FB2EE0BD48844235
:1005900008D10121202000F009FB0021202000F0DB
:1005A00005FB22E0B848844208D10121402000F038
:1005B000FDFA0021402000F0F9FA16E0B348844229
:1005C00008D10121802000F0F1FA0021802000F004
:1005D000EDFA0AE0AE48844207D10121801500F00F
:1005E000E5FA0021A01500F0E1FA10BD10B50121D7
:1005F000084600F0DBFA0021012000F0D7FA10BD18
:100600002DE9F041024600250026002000230024A9
:10061000002791F803C00CF00F0591F803C00CF00F
:10062000100CBCF1000F03D091F802C04CEA050594
:1006300091F800C0BCF1000F31D0146800202BE00D
:100640004FF0010C0CFA00F3B1F800C00CEA0306FD
:100650009E4220D183004FF00F0C0CFA03F7BC43ED
:1006600005FA03FC4CEA040491F803C0BCF1280F1E
:1006700006D14FF0010C0CFA00FCC2F814C00AE0DD
:1006800091F803C0BCF1480F05D14FF0010C0CFAF2
:1006900000FCC2F810C0401C0828D1D31460B1F887
:1006A00000C0BCF1FF0F34DD546800202EE000F1E3
:1006B000080C4FF0010808FA0CF3B1F800C00CEA7E
:1006C00003069E4221D183004FF00F0C0CFA03F772
:1006D000BC4305FA03FC4CEA040491F803C0BCF1E6
:1006E000280F05D100F1080C08FA0CF8C2F81480A4
:1006F00091F803C0BCF1480F07D100F1080C4FF08E
:10070000010808FA0CF8C2F81080401C0828CED363
:100710005460BDE8F0814FF6FF71018002218170C5
:100720000421C17070470246002093680B400BB152
:10073000012000E0002070470146886880B27047C1
:1007400002460020D3680B400BB1012000E00020DE
:1007500070470146C86880B27047016170474161C7
:1007600070470AB1016100E041617047C1607047A4
:100770004FF480320A4382618161826182698269B9
:10078000704702460020434B18684FF680731840AC
:1007900040EA021008433F4B186070473E49C86169
:1007A0007047F0B50A46002300240021002500F020
:1007B0000046B6F1004F02D1364EF16901E0354EE8
:1007C0007168C0F3034583B200F44016B6F5401FCC
:1007D00008D121F070612F4E766826F070662D4F9B
:1007E0007E6012E000F48016B6F5801F06D1032665
:1007F00006FA05F4A14341F0706106E0460D3601AA
:1008000003FA06F6B14341F0706122B1460D36019C
:1008100003FA06F6314300F00046B6F1004F02D16C
:100820001C4EF16101E01B4E7160F0BD30B500223D
:100830008B071C0F0F2303FA04F2164B08338C109E
:1008400053F824309343134C08348D1044F825306A
:1008500023468C1053F824308C07240F00FA04F43C
:1008600023430C4C08348D1044F8253030BD0A4920
:10087000DC3108607047000000080140000C0140B6
:10088000001001400014014000180140001C01400C
:10089000002001400000014000002042DF480068C5
:1008A00040F00100DD49086008464068DC49084026
:1008B000DA49486008460068DA490840D7490860C4
:1008C0000846006820F4802008600846406820F44C
:1008D000FE0048604FF41F0088607047CF490968E8
:1008E00021F48031CD4A11601146096821F480213C
:1008F0001160B0F5803F03D0B0F5802F0ED106E037
:10090000C649096841F48031C44A116007E0C3490F
:10091000096841F4A021C14A116000E000BF00BF96
:10092000704710B501460022002300204A11012A19
:1009300002D1BA4C236806E0022A02D1B74C236ADE
:1009400001E0B64C636A01F01F02012494401C4090
:100950000CB1012000E0002010BD38B5002000904F
:100960000024002500BF3120FFF7DBFF054600987B
:10097000401C00900098B0F5A06F01D0002DF2D07F
:100980003120FFF7CEFF08B1012400E0002420460B
:1009900038BD01460020A14A106820F0F80040EA66
:1009A000C10010607047A0490860704702460020EF
:1009B0009A4B586820F47C1042EA01031843974B85
:1009C0005860704798490866704701460020934A6E
:1009D000506820F003000843506070478F4840681B
:1009E00000F00C007047014600208C4A506820F04F
:1009F000F00008435060704701460020874A506865
:100A000020F4E06008435060704701460020834AAC
:100A1000506820F4605040EAC1005060704729B12E
:100A20007E4A527A02437D4B5A7204E07B4A527AE4
:100A300082437A4B5A7270477B49D83108607047BD
:100A400001460020754A506820F440400843506039
:100A500070470021714A20321170704A82F82010CC
:100A6000012802D004280AD104E001216B4A203277
:100A7000117005E00521694A2032117000E000BFC5
:100A800000BF70476949086070476449096A0143BB
:100A9000624A11627047654944390860704730B551
:100AA00000210022002400235C4D6D6805F00C013C
:100AB00021B1042905D0082923D105E05C4D05604A
:100AC00022E05B4D05601FE0544D6D6805F4701227
:100AD000524D6D6805F48034022505EB92421CB935
:100AE000544D554305600BE04C4D6D6805F40035E1
:100AF0001DB1504D5543056002E04D4D5543056015
:100B000002E04B4D056000BF00BF444D6D6805F02D
:100B1000F0010909484D6B5C0568DD4045603F4DBB
:100B20006D6805F4E061090A434D6B5C4568DD4082
:100B300085603A4D6D6805F46051C90A3E4D6B5CA5
:100B40004568DD40C560354D6D6805F44041890B51
:100B50003A4D6B5CC568B5FBF3F5056130BD29B155
:100B60002E4A526902432D4B5A6104E02B4A5269C6
:100B700082432A4B5A61704729B1284A926902433D
:100B8000264B9A6104E0254A92698243234B9A617D
:100B9000704729B1214AD2690243204BDA6104E04F
:100BA0001E4AD26982431D4BDA61704729B11B4A44
:100BB000D2680243194BDA6004E0184AD2688243D3
:100BC000164BDA60704729B1144A12690243134B7D
:100BD0001A6104E0114A12698243104B1A6170478E
:100BE00012494039086070470F49C86470470B4983
:100BF000C87170470948406A40F0807007494862F0
:100C0000704701460020054A92680A400AB1012057
:100C100000E00020704701498872704700100240D0
:100C20000000FFF8FFFFF6FE00004242800442424F
:100C300000127A0000093D0014000020240000206A
:100C400010B50446FE48844208D10121C014FFF7C4
:100C5000ADFF0021E014FFF7A9FFC4E0B4F1804F1D
:100C600008D101210846FFF7AEFF00210120FFF760
:100C7000AAFFB8E0F348844208D101210220FFF71F
:100C8000A2FF00210220FFF79EFFACE0EE48844265
:100C900008D101210420FFF796FF00210420FFF76F
:100CA00092FFA0E0E948844208D101210820FFF723
:100CB0008AFF00210820FFF786FF94E0E448844281
:100CC00008D101211020FFF77EFF00211020FFF73F
:100CD0007AFF88E0DF48844208D101212020FFF715
:100CE00072FF00212020FFF76EFF7CE0DA4884428B
:100CF00008D101214014FFF759FF00216014FFF7CC
:100D000055FF70E0D548844209D10121C804FFF79E
:100D10004DFF00214FF40020FFF748FF63E0D0486B
:100D2000844209D101210805FFF740FF00214FF45B
:100D30008010FFF73BFF56E0CA48844209D10121E9
:100D40004805FFF733FF00214FF40010FFF72EFF97
:100D500049E0C548844208D101214020FFF733FF14
:100D600000214020FFF72FFF3DE0C048844208D11A
:100D700001218020FFF727FF00218020FFF723FFBC
:100D800031E0BB48844208D101218015FFF71BFFE9
:100D90000021A015FFF717FF25E0B648844209D1CE
:100DA00001210804FFF702FF00214FF48030FFF714
:100DB000FDFE18E0B048844209D101214804FFF744
:100DC000F5FE00214FF40030FFF7F0FE0BE0AB48DA
:100DD000844208D101218804FFF7E8FE00214FF486
:100DE0008020FFF7E3FE10BD00220288944B98425A
:100DF0000ED0994B98420BD0B0F1804F08D0914B58
:100E0000984205D0904B984202D0904B984204D122
:100E10004FF68F731A404B881A438D4B984207D078
:100E20008C4B984204D04FF6FF431A40CB881A43AC
:100E300002808B8883850B880385814B98420BD079
:100E4000854B984208D08B4B984205D08A4B9842EC
:100E500002D08A4B984201D10B7A03860123838208
:100E6000704770B5002400220023058C4FF6FE76F3
:100E700035400584028C8388048B4FF68F752C4097
:100E8000B51E2C400D882C43751E2A400D892A431F
:100E90004D882A436A4DA8420BD06F4DA84208D016
:100EA000744DA84205D0744DA84202D0734DA8429B
:100EB00013D14FF6F7752A404D892A434FF6FB753B
:100EC0002A408D882A434FF6FF652B404FF6FF5589
:100ED0002B408D892B43CD892B4383800483CD8880
:100EE0008586028470BD70B5002400220023058C25
:100EF0004FF6EF7635400584028C8388048B48F6E4
:100F0000FF752C404FF6FF452C400D884FF6FF76BD
:100F100006EA05252C434FF6DF752A400D8906EABF
:100F200005152A434D8806EA05152A43444DA84273
:100F300002D0494DA8421DD14FF67F752A404D89F8
:100F40004FF6FF7606EA05152A434FF6BF752A408D
:100F50008D8806EA05152A434FF6FF352B404FF2E0
:100F6000FF752B408D8906EA85052B43CD8906EA5E
:100F700085052B4383800483CD880587028470BD5B
:100F800070B5002400220023058C4FF6FF66354023
:100F90000584028C8388848B4FF68F752C404FF626
:100FA000FC752C400D882C434FF6FF552A400D89C7
:100FB0004FF6FF7606EA05252A434D8806EA052501
:100FC0002A431F4DA84202D0234DA8421DD14FF203
:100FD000FF752A404D894FF6FF7606EA05252A431C
:100FE0004FF6FF352A408D8806EA05252A434EF63E
:100FF000FF752B404DF6FF752B408D8906EA0515D0
:101000002B43CD8906EA05152B4383808483CD8845
:101010008587028470BD70B5002200230024058CF2
:101020004EF6FF7635400584038C8488828B48F623
:10103000FF752A404FF6FF452A400D8820E000004A
:10104000002C01400004004000080040000C00405B
:10105000001000400014004000340140004C0140EA
:10106000005001400054014000180040001C0040A6
:101070000020004000400140004401400048014081
:101080004FF6FF7606EA05252A434DF6FF752B40FD
:101090000D8906EA05352B434D8806EA05352B43B5
:1010A000FA4DA84202D0FA4DA84208D14BF6FF757E
:1010B0002C408D894FF6FF7606EA85152C438480F7
:1010C0008283CD88A0F84050038470BD828B4FF29C
:1010D000FF331A408283828B4FF6FF7303EA0123AA
:1010E0001A4382837047F0B50C4615460022002152
:1010F0000026078C4EF6FF7C07EA0C070784828BDC
:10110000018C4FF6FF7707EA043640F6FF473A4076
:101110004FF6FF7707EA05273A434FF6FF7707EACE
:1011200003373A43D94FB8420ED0D94FB8420BD00B
:10113000B0F1804F08D0D74FB84205D0D64FB84253
:1011400002D0D64FB84206D14DF6FF77394046F46B
:101150008057394305E047F6FF57394044F480573C
:10116000394382830184F0BD828B4FF6F3731A40BA
:101170008283828B0A4382837047F0B50C46154602
:10118000002200210026078C4FF6FF6C07EA0C07AF
:101190000784828B018C4FF6FF7707EA04264FF60F
:1011A0000C773A404FF6FF7707EA03172F433A438D
:1011B000B64FB8420ED0B64FB8420BD0B0F1804F08
:1011C00008D0B44FB84205D0B34FB84202D0B34FA5
:1011D000B84206D14FF6FF57394046F4807739437D
:1011E00005E04FF2FF57394044F48077394382835A
:1011F0000184F0BD028B4FF2FF331A400283028B51
:101200004FF6FF7303EA01231A4302837047F0B5D8
:101210000C461546002200210026078C4FF6EF7C75
:1012200007EA0C070784028B018C4FF6FF7707EA69
:10123000041640F6FF473A404FF6FF7707EA0337B8
:101240003A434FF6FF7707EA05273A438F4FB842F4
:101250000ED08F4FB8420BD0B0F1804F08D08D4FD9
:10126000B84205D08C4FB84202D08C4FB84206D15C
:101270004FF6DF77394046F01007394305E04FF667
:101280005F77394044F01007394302830184F0BD91
:10129000028B4FF6F3731A400283028B0A430283D8
:1012A0007047F0B50C46154600220021068C4FF61B
:1012B000FE773E400684028B018C4FF60C7632405E
:1012C0007E1C06EA03162E433243704EB0420ED007
:1012D0006F4EB0420BD0B0F1804F08D06D4EB0428F
:1012E00005D06D4EB04202D06C4EB04206D14FF6E2
:1012F000FD76314044F00106314305E04FF6F576C6
:10130000314044F00106314302830184F0BD70B5E1
:1013100005460C465D4885420ED05D4885420BD09F
:10132000B5F1804F08D05B48854205D05A488542C8
:1013300002D05A48854200D100E000BF208850B951
:101340002389A28861882846FFF7ABFFE1882846F9
:10135000FFF79EFF25E0208804280AD12389A28870
:1013600061882846FFF753FFE1882846FFF742FFD0
:1013700017E0208808280AD12389A2886188284696
:10138000FFF7FBFEE1882846FFF7EEFE09E0238920
:10139000A28861882846FFF7A6FEE1882846FFF765
:1013A00095FE70BD2DE9F04105460C46002601274B
:1013B000608808B9022600E00026A088012801D133
:1013C000022700E001272088A0B92389A28861882C
:1013D0002846FFF766FFE1882846FFF759FF238973
:1013E0003A4631462846FFF712FFE1882846FFF7C4
:1013F00001FF13E02389A28861882846FFF707FFD1
:10140000E1882846FFF7F6FE23893A46314628460A
:10141000FFF747FFE1882846FFF73AFFBDE8F08174
:101420000A884B881A438B881A43CB881A430B8946
:101430001A434B891A438B891A43A0F844207047FA
:101440004FF6FF71818000210180C18041800172CF
:1014500070470021018041808180C18001814181EC
:101460008181C181704700210180418001218180FB
:101470000021C1800181704700210180418081806D
:10148000C18001814181818170470000002C0140B1
:10149000003401400004004000080040000C0040FF
:1014A00021B1028842F00102028004E002884FF676
:1014B000FE731A400280704731B1B0F8442042F404
:1014C0000042A0F8442005E0B0F84420C2F30E0228
:1014D000A0F8442070471AB183890B43838102E04E
:1014E00083898B43838170478182704741EA02037D
:1014F000A0F8483070471AB183890B43838102E01A
:1015000083898B438381704701894FF6F8721140BC
:10151000018170470A46002101894FF68F731940F7
:1015200011430181704730B504460D4629462046D7
:10153000FFF7F0FF208940F00700208130BD2DE942
:10154000F04104460D4616461F46602D06D13B4627
:10155000012231462046FFF75AFE05E03B460122B4
:1015600031462046FFF79DFE29462046FFF7D2FF71
:10157000208940F007002081BDE8F08130B50C469D
:1015800000210189C9B24FF6FF7505EA032515430D
:1015900025432943018130BD2DE9F04105460E4622
:1015A00017469846002443463A4631462846FFF7F8
:1015B000E5FF2C894FF6F870044044F007044FF61D
:1015C0008F70044044F070042C81BDE8F081F0B5C8
:1015D00004460D4616461F463B46324629462046DF
:1015E000FFF7CCFF208940F480402081F0BD0185C9
:1015F000828270470A46002101884FF68F73194096
:10160000114301807047F0B50C4615461E46002177
:10161000002200230189028B038C4FF6F8773940B2
:1016200021434FF6FC473A4040F201173A434FF648
:10163000DD773B404FF6FF7707EA06172F433B4322
:10164000018102830384F0BD0A460021018B4FF61D
:101650008F7319401143018370470A460021018BA3
:1016600048F6FF7319404FF6FF7303EA022319434C
:10167000018370470A460021818B4FF68F73194012
:101680001143818370470A460021818B48F6FF731E
:1016900019404FF6FF7303EA022319438183704711
:1016A00021B1028842F08002028004E002884FF6F5
:1016B0007F731A400280704721B1828842F0040291
:1016C000828004E082884FF6FB731A408280704764
:1016D00021B1828842F00802828004E082884FF6BD
:1016E000F7731A408280704721B1828842F001026C
:1016F000828004E082884FF6FE731A408280704731
:101700000A460021018B4FF6F773194011430183FC
:1017100070470A460021018B4FF2FF7319404FF6C4
:10172000FF7303EA02231943018370470A4600212D
:10173000818B4FF6F77319401143818370470A4636
:101740000021818B4FF2FF7319404FF6FF7303EABC
:1017500002231943818370470A460021018B4FF60B
:10176000FB7319401143018370470A460021018B26
:101770004FF6FF3319404FF6FF7303EA0223194374
:10178000018370470A460021818B4FF6FB73194095
:101790001143818370470A460021818B4FF6FF3346
:1017A00019404FF6FF7303EA022319438183704700
:1017B0000A460021018B4FF67F73194011430183C4
:1017C00070470A460021018BC1F30E014FF6FF73EB
:1017D00003EA02231943018370470A460021818BE3
:1017E0004FF67F7319401143818370470A460021E9
:1017F000818BC1F30E014FF6FF7303EA02231943F5
:10180000818370470A460021018C4FF6FD73194011
:101810001143018470470A460021018C4FF6F7738B
:1018200019401143018470470A460021018C4FF68C
:10183000DF7319404FF6FF7303EA02131943018463
:1018400070470A460021018C4FF67F7319404FF60E
:10185000FF7303EA02131943018470470A4600210B
:10186000018C4FF6FF5319404FF6FF7303EA022332
:101870001943018470470A460021018C4FF2FF731F
:1018800019404FF6FF7303EA02231943018470479E
:101890000A460021018C4DF6FF7319404FF6FF7385
:1018A00003EA023319430184704730B50023012451
:1018B0008C40A3B2048C9C430484048C02FA01F58E
:1018C000ADB22C43048430BD30B5002304248C40D9
:1018D000A3B2048C9C430484048C02FA01F5ADB2DB
:1018E0002C43048430BD70B5034600200024184604
:1018F000183001258D40ACB21D8CA5431D8409B163
:10190000082909D100EB6100056825F07005056024
:101910000568154305600EE00D1FC5F34E0528440C
:10192000056825F4E045056005684FF6FF7606EA90
:1019300002263543056070BD21B1028842F00202E3
:10194000028004E002884FF6FD731A40028070475F
:1019500021B1028842F00402028004E002884FF6BE
:10196000FB731A400280704721B1828842F08002E6
:10197000828004E082884FF67F731A40828070472D
:1019800002884FF6F7731A40028002880A430280E9
:10199000704782884FF68F731A40828082880A438C
:1019A0008280704702894FF6F8731A4002810289DB
:1019B0000A430281704702894FF67F731A40028101
:1019C00002890A430281704781847047818570478C
:1019D000818670470187704781877047A0F8401063
:1019E000704702884FF6FF431A40028002880A437C
:1019F000028070470146888E70470146088F704705
:101A00000146888F70470146B1F840007047014693
:101A1000888C70470146088D704702460020138A63
:101A20000B400BB1012000E000207047CA43028246
:101A3000704730B50246002000230024158A05EACD
:101A40000103958905EA010413B10CB1012000E0FE
:101A5000002030BDCA4302827047000010B5044622
:101A6000FB48844209D101218803FFF79FF8002138
:101A70004FF48040FFF79AF832E0F648844209D1EB
:101A800001214804FFF79FF800214FF40030FFF7D1
:101A90009AF825E0F048844209D101218804FFF733
:101AA00092F800214FF48020FFF78DF818E0EB4802
:101AB000844209D10121C804FFF785F800214FF4C1
:101AC0000020FFF780F80BE0E548844208D10121AF
:101AD0000805FFF778F800214FF48010FFF773F83E
:101AE00010BD2DE9F04786B005460E460024A246FB
:101AF00000BFA1460027B08900B100BF2F462C8A45
:101B00004CF6FF700440F08804432C82AC894EF6FA
:101B1000F3100440B08831890843718908430443B5
:101B2000AC81AC8A4FF6FF400440B0890443AC82DC
:101B300001A8FEF7B4FFC648874202D1DDF810A025
:101B400001E0DDF80CA0A88900F4004040B10AEBE8
:101B5000CA0000EB0A1031684900B0FBF1F807E059
:101B60000AEBCA0000EB0A1031688900B0FBF1F8FB
:101B70006420B8FBF0F004012009642101FB108906
:101B8000A88900F4004040B1322000EBC900B0FB4E
:101B9000F1F000F00700044308E0322000EB0910E8
:101BA0006421B0FBF1F000F00F0004432C8106B07B
:101BB000BDE8F0874FF41651016000218180C1809B
:101BC00001810C21418100218181704710B50246BD
:101BD0000020108A4FF2FF0318400B884C882343E3
:101BE0008C882343CC8823431843108210BD0021E6
:101BF000018041808180C180704721B1828942F497
:101C00000052828104E082894DF6FF731A4082817E
:101C10007047F0B50346002400260025002040F65A
:101C20006A17B94200D100BF1846C1F3421401F04F
:101C30001F06012707FA06F5012C01D10C3004E03C
:101C4000022C01D1103000E014301AB107682F4384
:101C5000076002E00768AF430760F0BD1AB1838AEE
:101C60000B43838202E0838A8B4383827047028A1C
:101C70004FF6F0731A400282028A0A4302827047CA
:101C800082894FF2FF731A40828182890A438281DE
:101C9000704721B1828942F00202828104E0828988
:101CA0004FF6FD731A4082817047028A4FF6DF7348
:101CB0001A400282028A0A430282704721B1028AD4
:101CC00042F48042028204E0028A4BF6FF731A401B
:101CD00002827047C1F308028280704701468888FB
:101CE000C0F308007047818941F00101818170478C
:101CF000028BD2B20283028B42EA01220283704736
:101D0000028B02F47F420283028B0A4302837047F4
:101D100021B1828A42F02002828204E0828A4FF658
:101D2000DF731A408282704721B1828A42F010022A
:101D3000828204E0828A4FF6EF731A4082827047F3
:101D400021B1828A42F00802828204E0828A4FF640
:101D5000F7731A408282704721B1828942F40042AF
:101D6000828103E08289C2F30E028281704721B131
:101D7000828A42F40062828204E0828A4FF2FF7318
:101D80001A4082827047828A4FF6FB731A40828221
:101D9000828A0A438282704721B1828A42F002021B
:101DA000828204E0828A4FF6FD731A408282704775
:101DB00002460020B1F5007F00D100BF13880B4020
:101DC0000BB1012000E00020704701F40072B2F571
:101DD000007F00D100BFCA430280704770B5024641
:101DE000002400230025002040F66A16B14200D1ED
:101DF00000BFC1F3421501F01F03012606FA03F3E9
:101E0000012D02D19689334006E0022D02D1168AB7
:101E1000334001E0968A33400C12012606FA04F49E
:101E20001688344013B10CB1012000E0002070BDD1
:101E300010B50022002340F66A14A14200D100BF71
:101E40000A1201249440A3B2DC43048010BD0000B8
:101E5000003801400044004000480040004C004071
:101E60000050004010B504464FF47A7104FB01F0B5
:101E700002F028FC10BD10B50446204602F022FCFA
:101E800010BD08B5002500BF4FF4A060FEF75CFA56
:101E900002F0CAFB00F065FA60A003F0C5FD02F095
:101EA000FFFB00F0AAFC00F07FFB42F2107002F092
:101EB00009FC5EA20221002000F018FC5DA20421B2
:101EC000002000F013FC01F050FA01F05FFF6420E5
:101ED000FFF7C8FF00F068FB4FF4165002F05AF805
:101EE0001C225849584800F09CFA02F0B8F857A252
:101EF0000021022000F0FAFB05E06420FFF7B2FFAA
:101F000056A003F091FD5A4800780028F5D059A258
:101F10000021022000F0EAFB0AE01C2249494A485D
:101F200000F07FFAC820FFF79DFF56A003F07CFD6C
:101F3000594800780028F0D058A003F075FD5CA245
:101F40000021022000F0D2FB01F088F800F03AFDF9
:101F50005BA003F069FD60E0681C85B25C48008806
:101F6000401C5B49088008460088001259490872E5
:101F70005748007848725848006803F011F8044642
:101F8000200E54498872200CC872200A08734C73C2
:101F90001922524800F045FA0A2D3ADB0025504834
:101FA000807800904E48437802784EA1514803F063
:101FB0004BFD504A0221002000F098FB4D494EA0F5
:101FC00003F032FD46484079009045480379C278D5
:101FD0004BA1484803F038FD464A0421002000F098
:101FE00085FB444944A003F01FFD3B48006802F014
:101FF000EBFF064632460B4645A13E4803F024FD62
:102000003C4A0621002000F071FB3A493AA003F057
:102010000BFD4CF2503002F055FB9DE7737461727A
:102020007420696E69742E2E2E0D0A004573703867
:1020300032363600636F6E6E656374696E672E2E7E
:102040002E0000002A00002000440040312E57617D
:102050006974207070732E2E2E00000077616974F1
:10206000206770732073796E63202E2E2E0D0A0068
:1020700060020020322E576169742074696D652EEC
:102080002E2E000077616974206770732070707362
:10209000202E2E2E0D0A000064020020677073208F
:1020A00074696D652073796E63206F6B0D0A000093
:1020B000332E475053204F4B2E2E2E202020200011
:1020C000494E4954204953204F4B0D0A000000004F
:1020D0006000002046000020700000200048004002
:1020E000B40B0020323025642D253032642D25308C
:1020F000326400007802002025730D0A0000000001
:10210000253032643A253032643A2530326420007A
:10211000663D252E3066487A202020202020200091
:10212000704700BFFEE700BFFEE700BFFEE700BF4D
:10213000FEE77047704770476E480088401C6D4945
:1021400008806D480088401C6B49088069480088F9
:1021500047F23051884202D100206649088070471A
:1021600070B56648006800F00200002833D063486C
:102170001438006800F0020068B3614800886149C3
:10218000086000205E4908805E4800685E49096872
:102190004CF2503202FB01005A49086000205A49B3
:1021A00008605848006802F0F6FE58490860084682
:1021B0000168574802F0A8FE5449086008460068C4
:1021C00002F002FF044622460B4652A003F02CFC0C
:1021D00002204A49086070BD4848006800F00800C5
:1021E00058B146481438006800F0080028B10120B2
:1021F0004B490870082041490860704710B540F20B
:1022000025514848FFF7EAFDD8B14648FFF766FD7B
:10221000C4B24548B0F80004C0F30E0040F2FF31EC
:1022200088420EDA4049B1F80014C1F30E00411C97
:102230003D4AB2F8002461F30E023B49A1F80024A4
:102240000C5440F224413748FFF7C8FD01280DD156
:102250003548B0F8000420F4004000F50040324951
:10226000A1F800042F48FFF739FDC4B210BD10B526
:1022700040F225512D48FFF7B1FDD8B12B48FFF7AB
:102280002DFDC4B22A48B0F80004C0F30E0040F29D
:10229000FF3188420EDA2649B1F80014C1F30E006E
:1022A000411C234AB2F8002461F30E022049A1F830
:1022B00000240C5440F224411C48FFF78FFD0128F4
:1022C00017D11B48B0F8000420F4004000F500408E
:1022D0001749A1F800041548FFF700FDC4B215A185
:1022E000134802F0F3FA08B1012000E0002014497D
:1022F000087010BD64000020660000201404014036
:10230000240400406C0000203802002070000020EF
:1023100000247449663D252E3066687A0D0A000057
:102320006900002000380140B0070020004800404C
:10233000AE030020434C4F5345440D0A00000000FB
:102340005C02002008B525208DF8000001208DF8E2
:1023500001008DF802008DF803006846FDF7F9FFD3
:1023600008BD00B585B001210420FEF705FC012160
:102370008803FEF701FC4FF40070ADF81000182040
:102380008DF8130003208DF8120004A94F48FEF7C2
:1023900037F94FF48060ADF8100004208DF8130079
:1023A00004A94A48FEF72CF94FF461200090002060
:1023B000ADF80400ADF80600ADF80800ADF80C006B
:1023C0000C20ADF80A0069464148FFF78AFB01215D
:1023D0003F48FFF712FC05B000BD70B504460D463E
:1023E00029462046FFF776FC00BF80212046FFF7F4
:1023F000DFFC0028F9D070BD70B506460C460025FC
:1024000000BF615D3046FFF7E8FF6D1C605D00288E
:10241000F7D100BF40213046FFF7CAFC0028F9D0B1
:1024200070BD2DE9F04107460D461646002400BF59
:1024300005E0295D3846FFF7D0FF601C84B2B44246
:10244000F7DB00BF80213846FFF7B2FC0028F9D047
:10245000BDE8F0812DE9F04105460C46260AE7B2B9
:1024600031462846FFF736FC00BF80212846FFF79B
:102470009FFC0028F9D039462846FFF72BFC00BF07
:1024800080212846FFF794FC0028F9D0BDE8F081B0
:1024900070B504460D46E1B20D48FFF71BFC00BFC6
:1024A00080210B48FFF784FC0028F9D0204670BD3E
:1024B00010B5044600BF20210548FFF779FC00282D
:1024C000F9D00348FFF70AFC10BD000000080140E6
:1024D0000038014070B504460E4626B10221FE4880
:1024E000FEF73BF903E00221FB48FEF738F9102123
:1024F000FA48FEF734F9002517E02021F748FEF7E7
:102500002EF904F0800020B18021F448FEF725F96F
:1025100003E08021F148FEF722F92021EF48FEF781
:102520001CF96006040E681CC5B2082DE5DB1021FD
:10253000EA48FEF712F90221E748FEF70EF970BDEE
:1025400070B504460D4605F1B001C8B20021FFF791
:10255000C1FFA11CC1F3031141F010000021FFF7DE
:10256000B9FFA11C01F00F000021FFF7B3FF70BD00
:1025700010B500218D20FFF7ADFF00211420FFF7DB
:10258000A9FF0021AF20FFF7A5FF10BD10B5002166
:102590008D20FFF79FFF00211020FFF79BFF0021F8
:1025A000AE20FFF797FF10BD70B5002419E004F1CD
:1025B000B001C8B20021FFF78DFF00210220FFF714
:1025C00089FF00211020FFF785FF002505E001218C
:1025D0000020FFF77FFF681CC5B2802DF7DB601C71
:1025E000C4B2082CE3DB70BD2DE9F04107460E466E
:1025F000904600250024A8F12000C5B27F2F02DDFF
:102600000027B01CC6B231463846FFF799FF0024B8
:1026100008E004EB0511B24A505C0121FFF75AFFB4
:10262000601CC4B2082CF4DB701CC1B23846FFF742
:1026300087FF002409E004EB05110831A84A505C2B
:102640000121FFF747FF601CC4B2082CF3DBBDE893
:10265000F08110B50246012000E050430B1EA1F1AD
:102660000104E1B2F9D110BD2DE9FF5F07469146A3
:102670001D460E9E4FF0000A002433E0281B401E2A
:10268000C1B20A20FFF7E5FFB9FBF0F00A21B0FB69
:10269000F1F201FB1208BAF1000F13D1681EA0423B
:1026A00010DDB8F1000F0BD1B34606EBDB7149101A
:1026B00001FB0471C8B220220199FFF795FF0FE0DA
:1026C0004FF0010AB34606EBDB71491001FB0471C0
:1026D000C8B208F13001CAB20199FFF785FF00BF07
:1026E000601CC4B2AC42C9DBBDE8FF9F2DE9F041DC
:1026F00004460F46154600260EE0AA5D39462046E0
:10270000FFF772FF04F10800C4B2782C02DD002448
:10271000B81CC7B2701CC6B2A85D0028EDD1BDE8D8
:10272000F0812DE9F04180460E46154600273146DE
:102730004046FFF705FF00240AE06A4A02EB8511D4
:10274000085D0121FFF7C6FE781CC7B2601CC4B249
:10275000102CF2DB701CC1B24046FFF7F1FE0024E2
:102760000CE06900491C5F4A02EB4111085D012140
:10277000FFF7B0FE781CC7B2601CC4B2102CF0DBAF
:10278000BDE8F0812DE9F05F06460F4690461C46F5
:10279000DDF828A04FF0000BE11704EB5171C910D0
:1027A000A4EBC10131B92046E11704EB5171C1F32B
:1027B000C70506E02046E11704EB5171C910491C1A
:1027C000CDB23D4615E029463046FFF7B9FEB14689
:1027D0000BE059460BF1010B1AF801000121FFF73C
:1027E00079FE09F1010000F0FF09C145F1DB681C29
:1027F000C5B2A542E7DBBDE8F09F08B50121042082
:10280000FEF7BAF9B020ADF8000010208DF80300F3
:1028100003208DF8020069463048FDF7F1FEB02133
:102820002E48FDF79AFF01210820FEF7A5F90320A5
:10283000ADF8000010208DF8030003208DF8020091
:1028400069462548FDF7DCFE03212348FDF785FF97
:1028500001212148FDF781FF234801F033FF0121C9
:102860001D48FDF77CFF214801F02CFF01211A488B
:10287000FDF773FF0021AE20FFF72CFE00210220A0
:10288000FFF728FE00211020FFF724FE0021402042
:10289000FFF720FE00218120FFF71CFE0021CF2042
:1028A000FFF718FE0021A120FFF714FE0021C82029
:1028B000FFF710FE0021A620FFF70CFE0021A82044
:1028C000FFF708FE00213F20FFF704FE0021D32080
:1028D000FFF700FE00210BE0000C01400008014062
:1028E0006066000874000020A0860100400D03000F
:1028F0000846FFF7EFFD0021D520FFF7EBFD002193
:102900008020FFF7E7FD0021D920FFF7E3FD00213C
:10291000F120FFF7DFFD0021DA20FFF7DBFD0021CA
:102920001220FFF7D7FD0021DB20FFF7D3FD0021A8
:102930004020FFF7CFFD00212020FFF7CBFD002135
:102940000220FFF7C7FD00218D20FFF7C3FD002106
:102950001420FFF7BFFD0021A420FFF7BBFD0021DD
:10296000A620FFF7B7FD0021AF20FFF7B3FD002140
:10297000AF20FFF7AFFDFFF717FE00210846FFF776
:10298000DFFD08BD08B507208DF8000000208DF898
:1029900001008DF8020001208DF803006846FDF764
:1029A000D8FC08BD08B509208DF8000000208DF87E
:1029B000010001208DF802008DF803006846FDF744
:1029C000C8FC08BD0EB501210520FEF7D5F8FFF7BC
:1029D000D9FF0220ADF8080004208DF80B0002A9F1
:1029E0003448FDF70DFE01210020FDF71FFF0220F6
:1029F000009000208DF8040008208DF805000120CB
:102A00008DF806006846FDF71BFD0EBD0EB50121D1
:102A10000520FEF7B1F8FFF7C5FF0820ADF8080064
:102A200004208DF80B0002A92248FDF7E9FD0321DF
:102A30000020FDF7FBFE0820009000208DF8040028
:102A400008208DF8050001208DF806006846FDF786
:102A5000F7FC0EBD08B501210820FEF78DF84FF4F4
:102A60000070ADF8000004208DF80300694612489C
:102A7000FDF7C6FD08BD1148006840F002000F498F
:102A8000086070470D4800684FF6FD7108400B491B
:102A90000860704710B504460020094908800121EC
:102AA00007482438FEF7FCFC00BF05480088A04218
:102AB000FBDB10BD00080140000C01400004014098
:102AC0002404004030B585B005460C4601210220A3
:102AD000FEF75FF801210420FEF74EF84020ADF824
:102AE000100028208DF8130004A9FE48FDF788FD8A
:102AF000ADF80850ADF804400020ADF80A00ADF87C
:102B0000060001A9F848FEF76FF90020F749088090
:102B10004880012088800020C8800881F248FEF7A4
:102B2000F6FB0021F048FEF76DFE1D208DF8000039
:102B300000208DF801008DF8020001208DF80300BF
:102B40006846FDF706FC01220221E748FEF7C3FCB8
:102B50000021E548FEF738FF0121E348FEF7A0FC1D
:102B600005B030BD30B589B004460D460121C8021C
:102B7000FEF702F801210520FDF7FEFF4FF48070FB
:102B8000ADF8200018208DF8230003208DF82200D6
:102B900008A9D448FDF734FDADF81840ADF814503D
:102BA0000020ADF81A00ADF816008DF81C0005A93C
:102BB000CF48FEF719F96020ADF804000020ADF809
:102BC0000800ADF80C000820ADF80E004001ADF88B
:102BD00010000020ADF812000120ADF806002046DC
:102BE00004EBD071C1F34F01ADF80A1001A9C04840
:102BF000FEF737F90821BE48FEF782FD0121BC48E7
:102C0000FEF75AFC0121BA48FEF74AFD0121B848F7
:102C1000FEF746FC09B030BD30B589B005460C461C
:102C200001210846FDF7B5FF01210520FDF7A4FFAE
:102C30000420ADF8200018208DF8230003208DF823
:102C4000220008A9A748FDF7DBFCADF81850ADF845
:102C500014400020ADF81A00ADF816008DF81C00E5
:102C600005A94FF08040FEF7BFF86020ADF80400E2
:102C70000020ADF80800ADF80C000820ADF80E00FB
:102C80004001ADF810000020ADF812000821C80680
:102C9000FEF73FFD0821C806FEF748FD0121880721
:102CA000FEF7FEFC0120ADF806000020ADF80A009A
:102CB00001A94FF08040FEF763F901A94FF0804071
:102CC000FEF711F901218807FEF7EAFB01218807C9
:102CD000FEF7F2FB00204FF080410887888709B09B
:102CE00030BD30B589B005460C4601210220FDF704
:102CF00050FF01210520FDF73FFFC020ADF8200067
:102D000018208DF8230003208DF8220008A97548AB
:102D1000FDF776FCADF81850ADF814400020ADF882
:102D20001A00ADF816008DF81C0005A96E48FEF7D4
:102D30005BF86020ADF804000020ADF80800ADF8A5
:102D40000C000820ADF80E004001ADF81000002086
:102D5000ADF8120008216448FEF7D2FC0821624851
:102D6000FEF7D7FC01216048FEF79AFC0120ADF880
:102D700006000020ADF80A0001A95B48FEF771F8D3
:102D800001A95948FEF7AFF801215748FEF788FB23
:102D900001215548FEF790FB00205349343108804B
:102DA000091D088009B030BD30B589B005460C4614
:102DB00001210420FDF7EDFE01210920FDF7DCFED5
:102DC000C020ADF8200018208DF8230003208DF8D6
:102DD000220008A94748FDF713FCADF81850ADF8DC
:102DE00014400020ADF81A00ADF816008DF81C0054
:102DF00005A94148FDF7F8FF6020ADF80400002068
:102E0000ADF80800ADF80C000820ADF80E00400148
:102E1000ADF810000020ADF8120008213648FEF78A
:102E20006FFC08213448FEF774FC01213248FEF79C
:102E300037FC0120ADF806000020ADF80A0001A91A
:102E40002D48FEF70EF801A92B48FEF74CF801219A
:102E50002948FEF725FB01212748FEF72DFB00201E
:102E6000254934310880091D088009B030BD00B5FE
:102E700085B001210420FDF77FFE4FF48050ADF8AE
:102E8000100004208DF8130003208DF8120004A90F
:102E90001448FDF7B5FB0121C802FDF76DFE14488B
:102EA000FDF7CEFE4FF6FF70ADF808000020ADF83C
:102EB0000400ADF80A00ADF806008DF80C0001A979
:102EC0000B48FDF791FF19208DF8000000208DF8C8
:102ED00001008DF8020001208DF803006846FDF71F
:102EE00038FA0BE00008014000040040A403002071
:102EF000002C0140000C0140000800400122114656
:102F0000D348FEF7E8FA00231A461946D048FEF7E0
:102F10005EFB0021CE48FEF757FD0121CC48FEF7AD
:102F2000BFFA05B000BD00B585B001210420FDF752
:102F300023FE0120ADF8100004208DF813000320BB
:102F40008DF8120004A9C348FDF75AFB0121084679
:102F5000FDF71FFE4FF08040FDF772FE4FF6FF7049
:102F6000ADF808000020ADF80400ADF80A00ADF897
:102F7000060001A94FF08040FDF736FF1C208DF8B8
:102F8000000000208DF8010001208DF802008DF86E
:102F900003006846FDF7DDF9012211469007FEF7B0
:102FA0009AFA00231A4619464FF08040FEF70FFBAD
:102FB00000214FF08040FEF707FD01218807FEF752
:102FC0006FFA05B000BD00B585B001212020FDF7E6
:102FD000D3FD0420ADF810008DF8130003208DF808
:102FE000120004A99C48FDF70BFB01210220FDF70C
:102FF000D0FD9A48FDF724FE4FF6FF70ADF80800AB
:103000000020ADF80400ADF80A00ADF8060001A9F3
:103010009248FDF7E9FE1D208DF8000000208DF894
:1030200001008DF8020001208DF803006846FDF7CD
:1030300090F9012211468948FEF74DFA00231A46FD
:1030400019468648FEF7C3FA00218448FEF7BCFC07
:1030500001218248FEF724FA05B000BD1FB5012109
:103060000220FDF796FD4CF24F30ADF808004720E6
:10307000ADF804000020ADF80A00ADF8060001A983
:103080007648FDF7B1FE1D208DF8000002208DF876
:10309000010000208DF8020001208DF80300684631
:1030A000FDF757F9012211466C48FEF714FA00218A
:1030B0006A48FEF789FC01216848FEF7F1F91FBD57
:1030C0001FB501210420FDF764FD41F28730ADF802
:1030D000080041F61F40ADF804000020ADF80A00DA
:1030E000ADF8060001A95E48FDF77EFE1E208DF8B2
:1030F000000002208DF8010003208DF8020001205D
:103100008DF803006846FDF724F901221146544862
:10311000FEF7E1F900215248FEF756FC0121504824
:10312000FEF7BEF91FBD1FB501210846FDF731FDB1
:1031300042F20F70ADF8080048F69F40ADF8040069
:103140000020ADF80A00ADF8060001A94FF080405C
:10315000FDF74AFE1C208DF8000001208DF80100CB
:103160008DF802008DF803006846FDF7F2F80122A1
:1031700011469007FEF7AFF900214FF08040FEF7AF
:1031800023FC00214FF08040FEF78AF91FBD304834
:103190001030008800F0010050B12D480C3000883C
:1031A00000F0010020B14FF6FE702949103108806F
:1031B00070474FF08040008A00F0010050B14FF09E
:1031C0008040808900F0010020B14FF6FE704FF082
:1031D00080410882704723480078401C21490870CC
:1031E000084600783C281BDB002008701E48007849
:1031F000401C1D490870084600783C2810DB002060
:1032000008701A480078401C184908700846007871
:10321000182805DB00200870124908701249087050
:1032200070470E481030008800F0010078B10B485C
:103230000C30008800F0010048B10D480068401CC7
:103240000B4908604FF6FE70044910310880704742
:10325000002C01400008014000140140000400401F
:103260000008004036020020350200203402002011
:103270003802002008B527208DF8000002208DF8C4
:10328000010000208DF8020001208DF8030068463F
:10329000FDF75FF808BD00B585B001218804FDF792
:1032A00078FC01210820FDF767FC4FF48060ADF841
:1032B000100018208DF8130003208DF8120004A9C7
:1032C000FA48FDF79DF94FF40060ADF810000420B6
:1032D0008DF8130004A9F548FDF792F94FF4E13099
:1032E00000900020ADF80400ADF80600ADF808002D
:1032F000ADF80C000C20ADF80A006946EC48FEF76A
:10330000F0FB012240F22551E948FEF782FC012240
:1033100040F22441E648FEF77CFCFFF7ABFF0121B9
:10332000E348FEF76AFC05B000BD08B5012108209E
:10333000FDF722FC4FF48070ADF8000010208DF8EE
:10334000030003208DF802006946D848FDF758F9BC
:1033500001210820FDF710FC4FF40040ADF80000FB
:103360006946D248FDF74CF908BD10B5FFF7DDFFFF
:10337000FFF791FF4FF40041CC48FDF7EEF9CD483F
:1033800001F0A0F94FF40041C848FDF7E8F94FF407
:103390008071C648FDF7E3F910BD08B5012108208A
:1033A000FDF7EAFB4FF48070ADF8000048208DF87F
:1033B000030003208DF802006946BC48FDF720F9A0
:1033C00001210820FDF7D8FB4FF40040ADF80000C4
:1033D0006946B648FDF714F908BD10B54FF4004131
:1033E000B248FDF7BAF9B34801F06CF94FF4004167
:1033F000AE48FDF7B4F9B04801F064F910BD2DE90D
:10340000F04106460C4615461F46AC48B0F800048D
:103410006FF30E00A949A1F800043246A8A1A44800
:1034200001F0ADF91CB915B90120BDE8F0814FF4E8
:103430007A7107FB01F001F045F900209F49B1F8CE
:103440000014C1F30E019D4A505411469EA002F093
:10345000EBFA9A48B0F800046FF30E009749A1F810
:1034600000040846B0F8000420F40040A1F800046D
:10347000B4B1ADB12146914801F028FA08B101205C
:1034800000E0002040B929468C4801F01FFA08B13D
:10349000012000E0002008B10120C6E70020C4E7B9
:1034A00044B12146854801F011FA08B10120BCE77A
:1034B0000020BAE72946814801F008FA08B1012046
:1034C000B3E70020B1E700B58BB080A101A802F0FE
:1034D000BBFA4FF4FA73002280A101A8FFF78FFF17
:1034E0000BB000BD10B500244FF400416F48FDF74C
:1034F00036F97BA002F098FA7D4801F0E3F815E078
:1035000021467CA002F090FA4FF4FA73002273A1D6
:103510007EA0FFF774FF28B121467DA002F084FA57
:10352000012010BDFFF759FF601CC4B20A2CE7DB75
:103530000020F6E710B5044624B1012C0AD0022C75
:1035400018D10FE040F6C41378A264A17AA0FFF767
:1035500056FF10BD40F6C41374A260A179A0FFF716
:103560004EFFF6E740F6C41370A25CA178A0FFF707
:1035700046FFEEE70020ECE730B59FB004460D466D
:103580002B46224675A101A802F05EFA41F288336B
:10359000002252A101A8FFF732FF1FB030BD70B565
:1035A000A0B004460D4616462B46224670A102A83E
:1035B000009602F049FA4FF47A73002247A102A85C
:1035C000FFF71DFF20B070BD10B586B004460CB1EA
:1035D000012000E0002002466BA101A802F034FAAD
:1035E0004FF4FA7300223DA101A8FFF708FF06B0CF
:1035F00010BDF0B5B9B006460F4614461D4664210D
:1036000020A801F058F916B1012E10D107E03B4671
:1036100061A262A120A8009402F016FA08E03B46DD
:1036200062A25EA120A8009402F00EFA00E000BFA2
:1036300000BF052D06DA20AB2A465DA102A802F0E4
:1036400003FA04E020AA5FA102A802F0FDF94FF4FA
:103650007A6360A221A102A8FFF7D1FE39B0F0BDC4
:1036600070B5BCB004460D461646ECB12B4601229F
:103670005CA11EA802F0E8F932465FA1684602F09C
:10368000E3F94FF4FA73002214A11EA8FFF7B7FE66
:1036900058B14FF4FA73002210A16846FFF7AFFE4D
:1036A00018B101203CB070BDB1E0ADE0000C0140AC
:1036B0000048004020A10700400D0300AE03002099
:1036C00025730D0A000000002573000041542B43B0
:1036D00057444843503D312C310000004F4B00000F
:1036E0000D0A4154B2E2CAD42E2E2E2E2E0D0A00FF
:1036F00080841E000D0A4154B2E2CAD4B4CECAFD81
:103700002025642E2E2E2E2E2E0D0A004154000050
:103710000D0A4154B2E2CAD4C6F4B6AFB3C9B9A6D1
:103720002025642E2E2E2E2E2E0D0A006E6F206365
:1037300068616E676500000041542B43574D4F444C
:10374000453D310041542B43574D4F44453D3200D8
:1037500041542B43574D4F44453D330041542B4377
:10376000574A41503D222573222C22257322000006
:1037700041542B43575341503D222573222C22257F
:1037800073222C312C25640041542B4349504D5554
:10379000583D256400000000544350002225732248
:1037A0002C222573222C2573000000005544500064
:1037B00041542B43495053544152543D25642C25C8
:1037C0007300000041542B43495053544152543D1F
:1037D00025730000414C5245415920434F4E4E4500
:1037E0004354000041542B434950534552564552CF
:1037F0003D25642C2573000041542B4349505354FC
:103800004F3D25730000000000203CB070BD2B46EA
:103810000022AFF230011EA802F016F94FF4FA733D
:103820000022AFF248111EA8FFF7E9FDEDE710B541
:103830004FF4FA730022AFF25C1181A0FFF7DFFDB5
:10384000A0B183A1854801F041F808B1022010BD64
:1038500083A1824801F03AF808B10320F7E783A179
:103860007E4801F033F808B10420F0E70020EEE7CD
:1038700010B500244FF4FA730022AFF2A01170A02B
:10388000FFF7BDFD002831D07BA1744801F01EF880
:1038900010B144F0010401E024F001047AA16F4862
:1038A00001F014F810B144F0020401E024F0020425
:1038B00079A16A4801F00AF810B144F0040401E06B
:1038C00024F0040478A1654801F000F810B144F038
:1038D000080401E024F0080477A1604800F0F6FF36
:1038E00010B144F0100401E024F01004204610BD93
:1038F0002DE9F04105460F464FF4FA730022AFF26E
:10390000242171A0FFF77BFD72A1544800F0DEFF77
:1039100006460EB1B61D02E00020BDE8F08100248D
:1039200009E0305D2855285D222802D10020285565
:1039300003E0601CC4B2BC42F3DB00BF0120ECE733
:1039400010B54FF4FA730022AFF2702163A0FFF7B5
:1039500056FD08B9002010BD4FF4FA7363A2AFF210
:10396000842163A0FFF74BFDF5E710B5634800F035
:10397000A9FE63A1634800F002FF634800F0A2FEC5
:1039800010BD2DE9F04186B007460C4615461E468F
:103990004FF0000847B12246AFF2D421594800F059
:1039A000EEFE4FF001081BE0052E06DAAB1C324696
:1039B00056A101A802F048F804E0AA1C58A101A8E9
:1039C00002F042F86423002259A101A8FFF717FD75
:1039D0004FF4FA73002257A12046FFF710FD8046EE
:1039E000404606B0BDE8F08170B5044600251B488E
:1039F000B0F800046FF30E001849A1F8000408465F
:103A0000B0F8000420F40040A1F8000400BF1348FF
:103A1000B0F80004C00B0028F9D000200F49B1F81D
:103A20000014C1F30E010D4A50540CB1154605E0C7
:103A300042A10A4800F04AFF00B1084D284670BD77
:103A400041542B43495053544154555300000000F6
:103A50005354415455533A320D0A0000AE0300202E
:103A60005354415455533A330D0A000053544154B2
:103A700055533A340D0A00002B43495053544154D6
:103A800055533A302C0000002B43495053544154B5
:103A900055533A312C0000002B43495053544154A4
:103AA00055533A322C0000002B4349505354415493
:103AB00055533A332C0000002B4349505354415482
:103AC00055533A342C00000041542B43494653527D
:103AD00000000000415049502C22000041542B436B
:103AE00049504D4F44453D31000000003E0000006C
:103AF00041542B43495053454E44000040420F006F
:103B00002B2B2B000048004020A1070041542B43E1
:103B1000495053454E443D25642C25640000000067
:103B200041542B43495053454E443D256400000009
:103B30003E20000053454E44204F4B002B4950443B
:103B40000000000070B5054600240DE0B44850F8B0
:103B50002410284600F0BAFE08B1012000E0002041
:103B600000B103E0601CC4B2082CEFDB00BF082CDE
:103B700061D2DFE804F0040F1B27313D4A554FF4B2
:103B80000060A84908604000091D08600220A6499D
:103B9000086051E04FF40060A249091D0860400030
:103BA000091F08600220A049086045E04FF400604A
:103BB0009C49091D08604000086002209A49091DBF
:103BC000086039E04FF400609649086040000860E2
:103BD0000220954908602FE04FF400609149086089
:103BE0004000091D086002208F49091D086023E07C
:103BF0004FF400608B49091D08604000091F0860F0
:103C000002208949091D086016E04FF400608549CB
:103C100008604000086002208349091D08600BE02D
:103C20004FF400607F49091D0860400008600220D1
:103C30007D49086000E000BF00BF70BD2DE9F04184
:103C400006460C4615461F467848B0F800046FF348
:103C50000E007649A1F80004324675A1754800F0BF
:103C60008EFD1CB915B90120BDE8F0814FF47A71C1
:103C700007FB01F000F026FD00206C49B1F80014AC
:103C8000C1F30E01694A5054114669A001F0CCFEFF
:103C90006648B0F800046FF30E006449A1F8000410
:103CA0000846B0F8000420F40040A1F80004B4B1C4
:103CB000ADB121465D4800F009FE08B1012000E0E9
:103CC000002040B92946594800F000FE08B1012003
:103CD00000E0002008B10120C6E70020C4E744B19D
:103CE0002146524800F0F2FD08B10120BCE7002057
:103CF000BAE729464D4800F0E9FD08B10120B3E7D5
:103D00000020B1E710B500244FF4004146481038B8
:103D1000FCF725FD48A001F087FE4C4800F0D2FCDE
:103D200030E04FF4FA71414800F0C5FD214648A04B
:103D300001F07AFE4FF47A73002211464BA0FFF790
:103D40007DFF4B4800F0BEFC4FF47A730022114611
:103D500048A0FFF773FF464800F0B4FC47A1334882
:103D600000F0B4FD20B946A1304800F0AFFD28B105
:103D7000214644A001F058FE012010BDFFF72DFBA5
:103D8000601CC4B20A2CCCDB0020F6E710B545A0BD
:103D900001F04AFE4AA001F047FE4FF4807122482C
:103DA0001038FCF7DAFC00BFFFF79CFB0028FBD0C3
:103DB00049A001F039FE00BF0020FFF705FC0028F4
:103DC000FAD04BA001F030FE00BF0020FFF7B2FB9D
:103DD0000028FAD000BFFFF776FB0028FBD04CA0EC
:103DE00001F022FE00BF51A153A0FFF7C5FB002840
:103DF000F9D053A001F018FE00BF052358A25AA124
:103E00000020FFF7F6FB0028F7D05BA001F00CFEC6
:103E100000BFFFF795FD0028FBD010BD704770472D
:103E20003C02002010080140100C0140AE030020AD
:103E300025730000004800400D0A2B2B2BB2E2CA6C
:103E4000D42E2E2E2E2E0D0A0000000080841E007F
:103E50000D0A2B2B2BB2E2CAD4B4CECAFD202564A6
:103E60002E2E2E2E2E2E0D0A000000002B2B2B00A6
:103E700040420F0041540D0A00000000455252001C
:103E80004F4B00000D0A2B2B2BB2E2CAD4C6F4B65E
:103E9000AFB3C9B9A62025642E2E2E2E2E2E0D0AC4
:103EA000000000000D0AD5FDD4DAC5E4D6C32045D4
:103EB000535038323636202E2E2E2E2E2E0D0A003E
:103EC0000D0ACAB9C4DC2045535038323636202E8C
:103ED0002E2E2E2E2E0D0A000D0ABDFBD6B9B6E0F1
:103EE000C1ACBDD3202E2E2E2E2E2E0D0A0000008A
:103EF0000D0AD5FDD4DAC5E4D6C3B9A4D7F7C4A357
:103F0000CABD20535441202E2E2E2E2E2E0D0A00D7
:103F10000D0AD5FDD4DAC1ACBDD32057694669205E
:103F20002E2E2E2E2E2E0D0A00000000313233349C
:103F3000353637380000000031323331323300007B
:103F40000D0AD5FDD4DAC1ACBDD3204D5154542057
:103F5000536572766572202E2E2E2E2E2E0D0A009F
:103F600038303930000000003139322E3136382EE9
:103F700034332E39390000000D0ABDF8C8EBCDB836
:103F8000B4ABB7A2CBCDC4A3CABD202E2E2E2E2EED
:103F90002E0D0A0010B586B0044601214804FCF736
:103FA000F8FD01210420FCF7E7FDFE48FDF756FD72
:103FB0000420ADF8140003208DF8160018208DF8A9
:103FC000170005A9F848FCF71BFB0820ADF8140002
:103FD00004208DF8170005A9F348FCF711FB0194A4
:103FE0000020ADF80800ADF80A00ADF80C00ADF8FF
:103FF00010000C20ADF80E0001A9EA48FDF771FD94
:104000000121E848FDF7F9FD4021E648FDF7DDFE16
:10401000012240F22551E348FDF7FBFD26208DF8F3
:10402000000001208DF8010002208DF8020001201F
:104030008DF803006846FCF78CF906B010BD08B592
:1040400017208DF8000000208DF8010001208DF868
:1040500002008DF803006846FCF77BF908BD0EB539
:1040600001210820FCF788FD01210846FCF784FDAA
:10407000FFF7E5FF8020ADF8080028208DF80B0041
:1040800002A9CA48FCF7BCFA07210120FCF7CEFBC5
:104090008020009000208DF8040008208DF8050095
:1040A00001208DF806006846FCF7CAF90EBD10B570
:1040B0008020FCF72BFA28B10120BD490870802030
:1040C000FCF735FA10BD2DE9F04F8BB004460622FF
:1040D000B8A1204600F00CFC10B10BB0BDE8F08F89
:1040E000A0792C2800D0F8E70026072009904FF08F
:1040F00000090725A4E0605D2C2802D0605D2A2815
:104100007ED1701CC6B2032E3FD1002006900790CE
:1041100008904A4604F1110106A800F0B3FB05AA75
:10412000A6A106A800F0F4FBA549059800F0ECFE56
:10413000039000F049FF074602F010F9834600F0B3
:1041400021FF82469E49504600F0ACFE0746059985
:1041500000F0A5FE04909B49049800F0D5FE0746A8
:10416000514600F047FE9849886098488968C0F831
:104170000E109549886800F027FF07463A460B461F
:1041800006A993A001F050FC00BF052E4CD10020E1
:104190000690079008904A4604F11B0106A800F01B
:1041A00071FB05AA85A106A800F0B2FB8449059819
:1041B00000F0AAFE039000F007FF074602F0CEF8D9
:1041C000834600F0DFFE82467D49504600F06AFEDD
:1041D0000746059900F063FE04907A49049800F0C0
:1041E00093FE0746514600F005FE7749C8607748C0
:1041F000C968C0F81210012074498875724900E03E
:1042000018E0C86800F0E0FE074688466E498868F6
:1042100000F0DAFE02460B46CDE90078CDE9020156
:1042200071A001F001FC58E7681CC0B209904FF082
:10423000080903E009F1010000F0FF09681CC5B29C
:10424000C82D03DA605D00287FF455AF00BF44E756
:1042500070B586B00446A0792C2804D1E0792C28CA
:1042600001D106B070BDA0792C287DD1E07930282D
:104270007ADBE079392877DC002600200190029073
:104280000390049034F8070FADF8040005AA5DA16F
:1042900001A800F03DFB9DF814004B49C8706088F0
:1042A000ADF8040005AA57A101A800F031FB9DF864
:1042B000140045490871A088E41FADF8040005AA60
:1042C00050A101A800F024FB9DF814003E4948715C
:1042D00000251BE1E81D205C2C2861D1701CC6B2B2
:1042E000082E5ED105F10800205C302859DB05F16D
:1042F0000800205C392854DC05F1080020440088BF
:10430000ADF8040000208DF8070005AA3DA101A822
:1043100000F0FEFA9DF814002B49887005F10A00A0
:1043200020440088ADF8040000208DF8070005AA9D
:1043300034A101A800F0ECFA9DF81400224948705D
:1043400005F10C0020440088ADF8040000208DF831
:10435000070005AA2BA101A800F0DAFA9DF81400C5
:1043600019490870084600E0D4E0C0780830C870E9
:104370000846C07818286DDB0846C0781838C87021
:1043800008468078401C88700846407801284CD048
:1043900008464078032848D008464078052833E08E
:1043A000B2E0AEE00044004000080140000C0140D3
:1043B0006402002024474E524D4300002566000051
:1043C0000000C84200007042B40B002046000020EC
:1043D0004C617469747564653A202573202D3E2004
:1043E000252E36660A00000056616C696420506F05
:1043F000736974696F6E3A20252E36662C20252E3F
:1044000036660A00256400000FD008464078072869
:104410000BD008464078082807D0084640780A287C
:1044200003D0084640780C2815D1654880781F28AD
:104430003ADD01206249887008464078401C487087
:10444000084640780C282FDD012048700846007887
:10445000401C087028E05A48407802280FD058487D
:10446000407804280BD056484078062807D0544896
:104470004078092803D0524840780B2814D150487E
:1044800080781E2810DD01204D498870084640784C
:10449000401C4870084640780C2805DD0120487013
:1044A00008460078401C08704548007845498870E7
:1044B00043484078C8704248807808714048C078C6
:1044C00048713F48007988713D484079C8713E483D
:1044D0000078012806D13A4843790279C1783BA097
:1044E00001F0A2FA38480078012806D134488378D0
:1044F000427801783BA001F097FA01203249087018
:10450000AFE6082E00DDACE6681CC5B2C82DFFF68C
:10451000E1AE00BF00BFA4E610B540F22551384817
:10452000FDF75CFC00283FD03548001D0088C4B270
:10453000242C04D1002033490880334908802C2CD6
:1045400004D131480088401C2F4908802D4800883C
:10455000B0F5F97F08DA2B4801880088401C294A09
:1045600010802A48445402E000202649088026484A
:1045700000880C2818D1AFF2C411244800F0A6F925
:1045800090B100202049088020491E4A1288885492
:104590000D48007810B91EA001F046FA1B48FFF73D
:1045A00057FE1A48FFF78FFD10BD10B500BF064833
:1045B00000780028FBD018A001F036FA10BD0000EA
:1045C000B40B0020460000206002002074696D6575
:1045D00020253032643A253032643A253032640D79
:1045E0000A000000646174653A323025303264207C
:1045F000253032642025303264200D0A000000008E
:10460000004400406602002068020020C80B002021
:1046100025730D0A000000006770732073796E63C4
:104620002074696D650D0A0030B51A4800684FF4B2
:104630007A72B0FBF2F1B1F1807F01D301201DE06D
:1046400021F07F40401E4FF0E022506150170F22B2
:10465000002807DA13071D0E0F4B00F00F04241F6C
:104660001D5503E013071C0E0C4B1C5400BF00200B
:104670004FF0E022906107201061002008B100BFD8
:10468000FEE74FF0E020006940F001004FF0E0212C
:10469000086130BD0000002018ED00E000E400E0FB
:1046A0001A48006840F080701849086000201849D6
:1046B00048600846006840F00100086070471448F0
:1046C0004068704731B5002312480068124DB0FBB6
:1046D000F5F0009D00FB05F400BFFFF7F0FF024678
:1046E00011E0FFF7ECFF014691420CD0914202D954
:1046F000881A034403E0C2F1FF30084403440A4629
:10470000A34200D300E0ECE700BF38BDFCED00E0C1
:10471000001000E00000002040420F00F0B503460A
:104720000D461646002729460A2E03D000200870A1
:104730002846F0BD33B9302001F8010B0020087085
:104740002846F6E7002B03DA2D2001F8010B5B4227
:1047500042F210720DE093FBF2F404B937B104F1A8
:10476000300001F8010B04FB123301270A2092FBF1
:10477000F0F2002AEFDC002008702846D9E70FB4D9
:1047800070B586B006460CA8019073E00B980078CF
:104790005C281CD10B98401C0B9000786E2809D027
:1047A00072280FD10D213046FDF794FA0B98401C6A
:1047B0000B900BE00A213046FDF78CFA0B98401C59
:1047C0000B9003E00B98401C0B9000BF4BE00B9844
:1047D0000078252840D10B98401C0B900078642865
:1047E00018D0732833D1019810C801900BE02178BC
:1047F0003046FDF76FFA00BF80213046FDF7D8FA4A
:104800000028F9D0641C20780028F0D10B98401CB7
:104810000B9020E0019820C801900A2202A92846A6
:10482000FFF77CFF02AC0BE021783046FDF752FA2F
:1048300000BF80213046FDF7BBFA0028F9D0641C88
:1048400020780028F0D10B98401C0B9003E00B98C7
:10485000401C0B9000BF06E00B9810F8011B0B905A
:104860003046FDF737FA00BF80213046FDF7A0FA49
:104870000028F9D00B980078002887D106B070BCCA
:104880005DF814FB40EA01039B0703D009E008C967
:10489000121F08C0042AFAD203E011F8013B00F805
:1048A000013B521EF9D27047D2B201E000F8012B51
:1048B000491EFBD270470022F6E710B513460A46A0
:1048C00004461946FFF7F0FF204610BD30B50546F7
:1048D0002A460B4612F8010B13F8014B08B1A0420F
:1048E000F8D01CB1002802D06D1CF1E7284630BD7D
:1048F00030B505460020034600E05B1C934205D21C
:10490000EC5CC85C201A01D1002CF6D130BD00004F
:104910000FB400B58DB010A909900B9000914FF025
:10492000FF300A9000200C9005480690054807903B
:104930006A4609A80F9900F0B5FB0DB05DF814FBAD
:10494000C1500008DF5000082DE9FF5F1D464FF001
:10495000FF3BD5E9014691465F464FF00008A96943
:104960007F1C01988847296A824688470028F6D12B
:10497000BAF1FF3F0CD024F4C064002E19DD6006AC
:1049800014D5BAF12B0F09D0BAF12D0F0ED103E0D7
:10499000584604B0BDE8F09F44F48064A9697F1CC8
:1049A00001988847761E8246002E02DDBAF1300F4C
:1049B00003D0B9F1000F26D032E0A969761E44F485
:1049C00000747F1C019888478246002E05DDBAF1ED
:1049D000780F06D0BAF1580F03D0B9F1000F10D0FC
:1049E0001EE0B9F1000F02D0B9F1100F18D1A9697A
:1049F000761E24F400747F1C01988847824610209C
:104A000002E0082000E00A20814609E008FB0908CE
:104A1000A969761E44F400747F1C01988847824679
:104A2000002E05DD4946504600F028FB0028EDDA4F
:104A3000E96901988847A00502D46FF00100A8E752
:104A4000E00725D1600613D5600502D5C8F1000046
:104A500000E0404629680A1D2A600968220501D540
:104A6000087015E0220701D5088011E008600FE00A
:104A70002868011D29600068210502D580F80080A2
:104A800006E0210702D5A0F8008001E0C0F8008010
:104A900038467EE72DE9FF4F087883B09946FF2816
:104AA00005D0491C2D2804D00024002008E0002057
:104AB0000BE00124F9E700EB800003EB4000491C08
:104AC0000B78FF2BF7D104B14042002302931478F6
:104AD00019461D462D2C01D02B2C04D1521C2D2CF7
:104AE00013D000240294AA461478FF2C0FD00A2574
:104AF000A3FB057801FB05814FF0000C03FB0C11B3
:104B0000521CE3194AEB0101EEE70124EAE7814474
:104B100053EA010002D019F5C87F06DA0398002194
:104B2000C0E9001107B0BDE8F08F0025AE4E2F465A
:104B3000DFF8B882184600F0A2FCCDE90001B9F117
:104B4000000002DAC9F1000400E004460023A74A8D
:104B50001AEB030B42EB045A12E0E00707D02A4697
:104B600033463846414600F0A9FB074688462A46A8
:104B700033461046194600F0A1FB05460E46641068
:104B8000002CEAD1DDE90001B9F1000F5A46534685
:104B900006DA00F005FC3A46434600F001FC05E069
:104BA00000F08CFB3A46434600F088FB029A0AB1BB
:104BB00081F00041039AC2E90001B3E72DE9FF4FFC
:104BC0001F468DB0D7E901464FF0FF382E204546ED
:104BD0004FF000090B90B9696D1C0E988847396A2F
:104BE000824688470028F6D1BAF1FF3F0AD024F464
:104BF000D064002E11DDBAF12B0F08D0BAF12D0FC1
:104C00000BD102E0404611B08DE744F48064B969ED
:104C10006D1C0E9888478246761E6946600501D550
:104C20002D2000E02B208DF8000001F1010B0DF18B
:104C3000200809E0B9696D1C0E98884782460F98D4
:104C400044F40074761E0560002E02DDBAF1300FC8
:104C5000F0D00B998A453ED144F0800406E00F99CC
:104C6000681CA9F1010944F400740860B9696D1C5D
:104C7000761E0E98884782463028F0D02BE00B999C
:104C80008A4505D1200603D444F08004761E18E03E
:104C9000504600F0BFFF08B30DF11301761E44F437
:104CA00000748B4508D2AAF130000BF8010B2006E6
:104CB00007D5A9F1010003E0200602D409F10100A3
:104CC0008146A00502D50F99681C0860B9696D1C62
:104CD0000E9888478246002ED1DC53E0002E51DD2D
:104CE000BAF1650F02D0BAF1450F4BD1A00549D5F5
:104CF000B9696D1C24F44074761E0E98884782466C
:104D0000002E0CDD2B2804D0BAF12D0F07D144F46E
:104D10008074B9696D1C0E9888478246761EE0053E
:104D200001D52D2100E02B2108F8011BCDF82C80A6
:104D300021E00DF12901761E44F4007488450CD25F
:104D4000AAF1300010F0FF0088F8000002D10B99A2
:104D5000884509D908F1010806E0E00501D5244895
:104D600001E042F20F708146B9696D1C0E988847C8
:104D700082460F980560002E04DD504600F04AFF81
:104D80000028D6D1F9690E988847FF208BF80000DB
:104D900088F800000020069007904B466A4608A954
:104DA00006A8FFF777FEA00502D46FF001002AE7FE
:104DB00014F0240F0AD0E00714D1DDE90612386898
:104DC000031D3B600068C0E900120BE0DDE906014D
:104DD00000F092FB0146E00704D13868021D3A60FA
:104DE0000068016028460EE7000014400000F03F14
:104DF000F1D8FFFFF0B480EA0102D40F4200B2EB19
:104E0000410F02D20246084611464A0042D0C30D65
:104E1000DDB2C1F3C752AD1A202D35DAC1F3160148
:104E200041F4000204B15242C5F1200602FA06F133
:104E30002A411044B3EBD05F23D0C4B1012DA0EBC5
:104E4000C35009DCF0BC4FF0004202EAC352DBB2AF
:104E500000F5000000F05DB9400000F1807000EB4B
:104E6000C350A0F1807040EAD170490009E04908C0
:104E700041EAC071A0EBC35000F50000400800EB10
:104E8000C350F0BC00F03CB96142012202EB410189
:104E9000001BF6E7F0BC704781F00041AAE780F004
:104EA0000040A7E780EA010210B502F0004340008D
:104EB00022D04A001FD0010E01EB1261C0F3560050
:104EC000C2F3560240F4000042F40002A0FB0220AC
:104ED00000047F39140400D0401C50EA124001D471
:104EE0004000491EC2B20C0604EBD010401C400822
:104EF000802A02D003E0002010BD20F0010000292C
:104F000000DA0020184310BD30B480EA010202F03C
:104F1000004530F0004221F0004013D090B1C30DA5
:104F2000D40DC2F31601C0F31600E41A41F40001D7
:104F300040F400027D34914201D3641C00E049003A
:104F4000002C02DA30BC002070474FF40000002330
:104F5000914201D3891A034340084FEA4101F7D136
:104F600051B1914202D14FF0004105E002D24FF021
:104F7000010101E06FF0010103EBC450284430BC93
:104F800000F0BEB8C10F80EAE0700844CA0796235B
:104F9000002100F0BEB896230022114600F0B9B8F7
:104FA00020F00040C10DC0F3160040F400007F293E
:104FB00001DA00207047962903DCC1F19601C84050
:104FC000704796398840704700F0004230F000404A
:104FD0000AD0C10D01F56071C0F3160042EA01511B
:104FE000C20840071143704700200146704730B5A2
:104FF0000B46014600202022012409E021FA02F597
:105000009D4205D303FA02F5491B04FA02F5284430
:10501000151EA2F10102F1DC30BD2DE9F05F05465D
:10502000002092469B4688460646814640241BE067
:10503000284641464746224600F09BFA53465A46C8
:10504000C01A914110D311461846224600F082FA48
:105050002D1A67EB01084F4622460120002100F07F
:1050600079FA17EB00094E41201EA4F10104DFDCA0
:10507000484631462A464346BDE8F09F3A2800D2CA
:10508000303820F02002412A01D3A2F137008842B3
:1050900001D34FF0FF30704702681144137801606C
:1050A00018467047D16004495161044911620021DA
:1050B0001161114600F084BA99500008B7550008F4
:1050C000426842B1016811F8013B23B1521EC0E9A8
:1050D0000012184670470121C160881E704742685F
:1050E0005AB1C368016843B983688B4205D0491E31
:1050F000521CC0E90012002070474FF0FF3070478B
:105100000029A8BF7047401C490008BF20F00100DB
:10511000704710B4B0FA80FC00FA0CF050EA0104B9
:1051200004BF10BC704749B1CCF1200421FA04F44B
:1051300011FA0CF118BF012121430843A3EB0C0124
:10514000CB1D4FEA00614FEA102042BF002010BC87
:10515000704700EBC35010440029A4BF10BC704737
:10516000401C490008BF20F0010010BC70472DE929
:10517000FE4F804681EA0300C00F0C46009021F0EC
:10518000004123F00045B8EB0200A94105D240469A
:10519000214690461C460B46024623F00040104331
:1051A00047D0270DC7F30A00C3F30A510290401AF3
:1051B000019040286BDAC3F3130040F4801B009881
:1051C000924620B10023D2EB030A63EB0B0B01984C
:1051D0005946C0F14002504600F0BCF906460D4663
:1051E00050465946019A00F0D4F910EB080061418D
:1051F000002487EA115284EAE7731A4340D0009AE8
:1052000062B3019A012A4FEA075215DC001B61EBD9
:1052100002014FF0004202EA0752CDE90042001CB1
:1052200041F5801132462B4600F06FFB03B0BDE81C
:10523000F08F40462146F9E7001B61EB0201001C9C
:1052400041F5801300185B412018A2F5001747EBC9
:10525000030140EAD570B6196D4111E06D084FEABF
:10526000360645EAC0754FEA0752001B61EB0201A2
:10527000001C41F5801149084FEA300000195141E6
:1052800032462B4603B0BDE8F04F00F02FBB00982C
:10529000012240000023D0EB020263EBE073009890
:1052A00021464FEAE074B8EB000061EB0401E9E746
:1052B00083F000435BE781F0004158E72DE9FE4FA2
:1052C00081EA030404F0004421F0004100944FF00F
:1052D000000B23F0004350EA01045ED052EA0304BD
:1052E0005BD0C3F30A54C1F30A552C44A4F2F3343F
:1052F0000194A0FB0254C1F3130141F48011C3F3E4
:10530000130343F4801301FB024400FB034E840AA1
:10531000970A44EA815447EA8357A4FB0768029539
:105320008D0A05FB07854FEA932C04FB0C542705D7
:10533000029D4FEA065847EA1637B5EB08056EEBB3
:10534000070C870E920E47EA811742EA8312A7FBE9
:105350000201B6EB0B0164EB00042B0D43EA0C33A6
:105360005E1844EB1C50DA465146E7FB0201C5F3D8
:1053700013044FEA0B3343EA14534FEA0432019CFF
:1053800043EA0603A4F10C040294009CCDE900B4A6
:1053900000F0BBFA03B0BDE8F08F00200146F9E74A
:1053A0002DE9F04D81EA030404F0004B21F00045A3
:1053B00014464FF0000A23F0004150EA050220D0C5
:1053C00054EA01021DD0C5F30A570246C5F3130380
:1053D000C1F31300C1F30A5640F4801543F480135F
:1053E000A7EB0608101BD64608F2FD3873EB050044
:1053F00002D308F1010801E092185B41B8F1000FF7
:1054000003DA00200146BDE8F08D00204FF4801142
:10541000064684460EE0171B73EB050705D3121BE7
:1054200063EB050306434CEA010C49084FEA3000E0
:1054300092185B4150EA0107EDD152EA030012D005
:1054400082EA040083EA0501084305D0101BAB4142
:1054500006D20122002306E000224FF0004302E0C2
:105460006FF0010253101AEB06004CEB085110EBE1
:105470000A0041EB0B01BDE8F04D00F037BA0EB564
:1054800040F2334202920022CDE90022134600F09E
:105490003CFA03B000BDC1F30A52C1F3130140F25C
:1054A000FF3341F480119A4202DA0020014670472E
:1054B00040F233439A42A2F2334202DC524200F0FD
:1054C00058B800F047B8000030B5041E71F1000470
:1054D00004DB4FF00044404264EB0101141E73F101
:1054E000000405DB1C464FF00043524263EB04030B
:1054F000994208BF904230BD01F0004330B421F022
:10550000004150EA010206D00A0DA2F56072C1F313
:105510001301002A02DC30BC00207047440F44EA2B
:10552000C104C100E01830BC00EBC250FFF7E8BD79
:10553000064C074D06E0E06840F0010394E80700E0
:1055400098471034AC42F6D3FAF7F6FDEC6C00083D
:105550000C6D0008202A04DB203A00FA02F100203A
:1055600070479140C2F1200320FA03F319439040A1
:105570007047202A04DB203A21FA02F0002170470C
:1055800021FA02F3D040C2F12002914008431946AB
:105590007047202A06DBCB17203A41FA02F043EA93
:1055A000E07306E041FA02F3D040C2F120029140DC
:1055B000084319467047C0B24FF4F05100F0F4B9F7
:1055C0002DE9F34F8BB04FF0000801F10C000C46B1
:1055D0004FF0010B46460DF1080A01906269012166
:1055E00001989047051E2DD0252D2CD0216A884783
:1055F000C0B16269012101989047216A884700285B
:10560000F7D1411E62690198904700E0761CA169BC
:105610000B988847216A88470028F7D1E1690B98E1
:105620008847DBE7A1690B9888470746A84201D164
:10563000761CD3E7E1690B9888477F1C02D1B8F14B
:10564000000F6FD046E1002762693D463946019858
:1056500090472A2804D162690121019890470125C9
:10566000DFF884926269012101989047A0F130012E
:105670000A290AD24F45E5DC07EB870100EB410719
:10568000303FDFD445F01005ECE7E90601D46FF0B8
:1056900000476C280AD04C2814D0682815D06A28F6
:1056A0000DD074281CD07A281AD01DE0626901211F
:1056B000019890476C2802D045F0040514E045F0AD
:1056C00002050DE045F020050AE06269012101981C
:1056D0009047682802D045F0080505E045F40065CC
:1056E0006269012101989047C4E9015765283DD0BE
:1056F00019DC58287AD00CDC452837D004DC252862
:1057000026D0412831D131E046282FD047282CD14E
:105710002CE05B2877D0612828D063287CD06428CF
:1057200023D15AE0D0E06F2848D008DC66281DD08D
:1057300067281BD0692821D06E2816D127E0702851
:1057400045D0732868D0752847D078280DD14DE012
:10575000A1690B988847054625283FF469AFE169A0
:105760000B9888476D1C3FF46AAFB3E023466A4646
:105770006FF001000B99FFF721FA9EE045F0400021
:105780006060A80723464FF0000236D43EE0E807E9
:105790007FF447AF2068011D21600068290501D50D
:1057A00006701BE7290701D5068017E7A90703D56F
:1057B000F117C0E9006111E706600FE745F040000E
:1057C0006060A80723464FF0080216D41EE040F69A
:1057D0000E0125EA0100606016E045F040006060BF
:1057E000A80723464FF00A0207D40FE045F0400017
:1057F0006060A80708D5234610226FF001000B99BE
:10580000AFF3008059E007E0234610226FF001005B
:105810000B99FFF799F850E04FF000094F464B46BF
:10582000632802D05B2806D040E0E80601D40120BE
:10583000A06001273AE062690121019890475E2843
:1058400005D14FF0010962694946019890472169E5
:1058500039B900210A46534643F82120491C08293A
:10586000FADBB0B3216969B9C11700EBD1625311FA
:105870000AEB830122F01F02821A01200B6890407C
:1058800003430B6062690121019890475D28E8D1CC
:10589000B9F1000F09D00020514651F82020D24321
:1058A00041F82020401C0828F7DB02AB2246009775
:1058B0006FF001000B99AFF3008000280CDA401C58
:1058C00008D1BBF1000F05D04FF0FF300DB0BDE89F
:1058D000F08FFFE74046F9E7E90701D108F1010839
:1058E00006444FF0000B79E6CCCCCC0C10B5141E5E
:1058F00073F1000408DA401C41F1000192185B4189
:105900001A4301D120F0010010BD2DE9F04D92465F
:105910009B4611B1B1FA81F202E0B0FA80F2203276
:105920009046FFF717FE04460F4640EA0A0041EA98
:105930000B0153465A46084313D0114653EA01005F
:1059400019D0C8F140025046FFF713FE05460E4637
:10595000504659464246FFF7FDFD084305D0012059
:1059600004E020463946BDE8F08D0020054346EAB4
:10597000E0762C4337430A986305E40AA0EB08005D
:105980000022FD0A44EA47540A3002D500200146AD
:10599000E9E7010510196941DDE908450019694188
:1059A000BDE8F04DA2E700007F2801D9002208E001
:1059B000064A02EB5002C007127800D1120902F029
:1059C0000F0201209040084070470000506C000812
:1059D00070B58C1810F8015B15F0070301D110F8B1
:1059E000013B2A1106D110F8012B03E010F8016BDE
:1059F00001F8016B5B1EF9D12B0705D40023521E61
:105A00000DD401F8013BFAE710F8013BCB1A921CC8
:105A100003E013F8015B01F8015B521EF9D5A142C6
:105A2000D8D3002070BD00000FB4054B10B503A9FA
:105A3000044A029800F0F6F810BC5DF814FB000070
:105A400091240008740200200FB4084B10B504A97B
:105A500002AA039800F0E6F8044602A9002000F02C
:105A600078FC204610BC5DF814FB0000536300086E
:105A700002E008C8121F08C1002AFAD17047704717
:105A8000002001E001C1121F002AFBD17047000075
:105A90002DE9FF5F82B00021DDE90430020DDDF861
:105AA00040B0034318D044F61050A2F2FF324243F4
:105AB0001514119801281FD0A5EB0B00401C5FEABC
:105AC000000A4FF000064E4FDFF83891B0465046BE
:105AD00015D5CAF1000413E0119801244AA3012846
